{
  "contractName": "Demo",
  "abi": [
    {
      "anonymous": false,
      "inputs": [
        {
          "indexed": false,
          "internalType": "string",
          "name": "message",
          "type": "string"
        }
      ],
      "name": "Echo",
      "type": "event"
    },
    {
      "inputs": [
        {
          "internalType": "string",
          "name": "message",
          "type": "string"
        }
      ],
      "name": "echo",
      "outputs": [],
      "stateMutability": "nonpayable",
      "type": "function"
    }
  ],
  "bytecode": "0x608060405234801561000f575f80fd5b506101ec8061001d5f395ff3fe608060405234801561000f575f80fd5b5060043610610029575f3560e01c8063f15da7291461002d575b5f80fd5b610047600480360381019061004291906100ef565b610049565b005b7fdb84d7c006c4de68f9c0bd50b8b81ed31f29ebeec325c872d36445c6565d757c828260405161007a929190610194565b60405180910390a15050565b5f80fd5b5f80fd5b5f80fd5b5f80fd5b5f80fd5b5f8083601f8401126100af576100ae61008e565b5b8235905067ffffffffffffffff8111156100cc576100cb610092565b5b6020830191508360018202830111156100e8576100e7610096565b5b9250929050565b5f806020838503121561010557610104610086565b5b5f83013567ffffffffffffffff8111156101225761012161008a565b5b61012e8582860161009a565b92509250509250929050565b5f82825260208201905092915050565b828183375f83830152505050565b5f601f19601f8301169050919050565b5f610173838561013a565b935061018083858461014a565b61018983610158565b840190509392505050565b5f6020820190508181035f8301526101ad818486610168565b9050939250505056fea2646970667358221220090edcf7d243e2b9b54352a5d8d17b2bec907a6381f03dbf0cc087ed334468cd64736f6c63430008150033",
  "immutableReferences": {},
  "source": "// SPDX-License-Identifier: MIT\r\npragma solidity >=0.5.8;\r\n\r\ncontract Demo {\r\n    event Echo(string message);\r\n\r\n    function echo(string calldata message) external {\r\n        emit Echo(message);\r\n    }\r\n}",
  "sourcePath": "C:\\SSAFY\\\\S09P22A209\\blockchain\\smart-contract\\contracts\\Demo.sol",
  "compiler": {
    "name": "solc",
    "version": "0.8.21+commit.d9974bed.Emscripten.clang"
  },
  "schemaVersion": "3.4.16",
  "updatedAt": "2023-09-10T12:05:23.951Z",
  "devdoc": {
    "kind": "dev",
    "methods": {},
    "version": 1
  },
  "userdoc": {
    "kind": "user",
    "methods": {},
    "version": 1
  }
}