{
  "contractName": "TestNFT1",
  "abi": [
    {
      "inputs": [],
      "stateMutability": "nonpayable",
      "type": "constructor"
    },
    {
      "anonymous": false,
      "inputs": [
        {
          "indexed": true,
          "internalType": "address",
          "name": "owner",
          "type": "address"
        },
        {
          "indexed": true,
          "internalType": "address",
          "name": "approved",
          "type": "address"
        },
        {
          "indexed": true,
          "internalType": "uint256",
          "name": "tokenId",
          "type": "uint256"
        }
      ],
      "name": "Approval",
      "type": "event"
    },
    {
      "anonymous": false,
      "inputs": [
        {
          "indexed": true,
          "internalType": "address",
          "name": "owner",
          "type": "address"
        },
        {
          "indexed": true,
          "internalType": "address",
          "name": "operator",
          "type": "address"
        },
        {
          "indexed": false,
          "internalType": "bool",
          "name": "approved",
          "type": "bool"
        }
      ],
      "name": "ApprovalForAll",
      "type": "event"
    },
    {
      "anonymous": false,
      "inputs": [
        {
          "indexed": false,
          "internalType": "uint256",
          "name": "_fromTokenId",
          "type": "uint256"
        },
        {
          "indexed": false,
          "internalType": "uint256",
          "name": "_toTokenId",
          "type": "uint256"
        }
      ],
      "name": "BatchMetadataUpdate",
      "type": "event"
    },
    {
      "anonymous": false,
      "inputs": [
        {
          "indexed": false,
          "internalType": "uint256",
          "name": "_tokenId",
          "type": "uint256"
        }
      ],
      "name": "MetadataUpdate",
      "type": "event"
    },
    {
      "anonymous": false,
      "inputs": [
        {
          "indexed": true,
          "internalType": "address",
          "name": "from",
          "type": "address"
        },
        {
          "indexed": true,
          "internalType": "address",
          "name": "to",
          "type": "address"
        },
        {
          "indexed": true,
          "internalType": "uint256",
          "name": "tokenId",
          "type": "uint256"
        }
      ],
      "name": "Transfer",
      "type": "event"
    },
    {
      "inputs": [
        {
          "internalType": "address",
          "name": "to",
          "type": "address"
        },
        {
          "internalType": "uint256",
          "name": "tokenId",
          "type": "uint256"
        }
      ],
      "name": "approve",
      "outputs": [],
      "stateMutability": "nonpayable",
      "type": "function"
    },
    {
      "inputs": [
        {
          "internalType": "address",
          "name": "owner",
          "type": "address"
        }
      ],
      "name": "balanceOf",
      "outputs": [
        {
          "internalType": "uint256",
          "name": "",
          "type": "uint256"
        }
      ],
      "stateMutability": "view",
      "type": "function"
    },
    {
      "inputs": [
        {
          "internalType": "uint256",
          "name": "tokenId",
          "type": "uint256"
        }
      ],
      "name": "getApproved",
      "outputs": [
        {
          "internalType": "address",
          "name": "",
          "type": "address"
        }
      ],
      "stateMutability": "view",
      "type": "function"
    },
    {
      "inputs": [
        {
          "internalType": "address",
          "name": "owner",
          "type": "address"
        },
        {
          "internalType": "address",
          "name": "operator",
          "type": "address"
        }
      ],
      "name": "isApprovedForAll",
      "outputs": [
        {
          "internalType": "bool",
          "name": "",
          "type": "bool"
        }
      ],
      "stateMutability": "view",
      "type": "function"
    },
    {
      "inputs": [],
      "name": "name",
      "outputs": [
        {
          "internalType": "string",
          "name": "",
          "type": "string"
        }
      ],
      "stateMutability": "view",
      "type": "function"
    },
    {
      "inputs": [
        {
          "internalType": "uint256",
          "name": "tokenId",
          "type": "uint256"
        }
      ],
      "name": "ownerOf",
      "outputs": [
        {
          "internalType": "address",
          "name": "",
          "type": "address"
        }
      ],
      "stateMutability": "view",
      "type": "function"
    },
    {
      "inputs": [
        {
          "internalType": "address",
          "name": "from",
          "type": "address"
        },
        {
          "internalType": "address",
          "name": "to",
          "type": "address"
        },
        {
          "internalType": "uint256",
          "name": "tokenId",
          "type": "uint256"
        }
      ],
      "name": "safeTransferFrom",
      "outputs": [],
      "stateMutability": "nonpayable",
      "type": "function"
    },
    {
      "inputs": [
        {
          "internalType": "address",
          "name": "from",
          "type": "address"
        },
        {
          "internalType": "address",
          "name": "to",
          "type": "address"
        },
        {
          "internalType": "uint256",
          "name": "tokenId",
          "type": "uint256"
        },
        {
          "internalType": "bytes",
          "name": "data",
          "type": "bytes"
        }
      ],
      "name": "safeTransferFrom",
      "outputs": [],
      "stateMutability": "nonpayable",
      "type": "function"
    },
    {
      "inputs": [
        {
          "internalType": "address",
          "name": "operator",
          "type": "address"
        },
        {
          "internalType": "bool",
          "name": "approved",
          "type": "bool"
        }
      ],
      "name": "setApprovalForAll",
      "outputs": [],
      "stateMutability": "nonpayable",
      "type": "function"
    },
    {
      "inputs": [
        {
          "internalType": "bytes4",
          "name": "interfaceId",
          "type": "bytes4"
        }
      ],
      "name": "supportsInterface",
      "outputs": [
        {
          "internalType": "bool",
          "name": "",
          "type": "bool"
        }
      ],
      "stateMutability": "view",
      "type": "function"
    },
    {
      "inputs": [],
      "name": "symbol",
      "outputs": [
        {
          "internalType": "string",
          "name": "",
          "type": "string"
        }
      ],
      "stateMutability": "view",
      "type": "function"
    },
    {
      "inputs": [
        {
          "internalType": "uint256",
          "name": "tokenId",
          "type": "uint256"
        }
      ],
      "name": "tokenURI",
      "outputs": [
        {
          "internalType": "string",
          "name": "",
          "type": "string"
        }
      ],
      "stateMutability": "view",
      "type": "function"
    },
    {
      "inputs": [
        {
          "internalType": "address",
          "name": "from",
          "type": "address"
        },
        {
          "internalType": "address",
          "name": "to",
          "type": "address"
        },
        {
          "internalType": "uint256",
          "name": "tokenId",
          "type": "uint256"
        }
      ],
      "name": "transferFrom",
      "outputs": [],
      "stateMutability": "nonpayable",
      "type": "function"
    },
    {
      "inputs": [
        {
          "internalType": "address",
          "name": "user",
          "type": "address"
        },
        {
          "internalType": "string",
          "name": "_newBaseURI",
          "type": "string"
        }
      ],
      "name": "mintNFT",
      "outputs": [
        {
          "internalType": "uint256",
          "name": "",
          "type": "uint256"
        }
      ],
      "stateMutability": "nonpayable",
      "type": "function"
    }
  ],
  "bytecode": "0x608060405234801562000010575f80fd5b506040518060400160405280600881526020017f546573744e4654310000000000000000000000000000000000000000000000008152506040518060400160405280600881526020017f546573744e465431000000000000000000000000000000000000000000000000815250815f90816200008d91906200030c565b5080600190816200009f91906200030c565b505050620003f0565b5f81519050919050565b7f4e487b71000000000000000000000000000000000000000000000000000000005f52604160045260245ffd5b7f4e487b71000000000000000000000000000000000000000000000000000000005f52602260045260245ffd5b5f60028204905060018216806200012457607f821691505b6020821081036200013a5762000139620000df565b5b50919050565b5f819050815f5260205f209050919050565b5f6020601f8301049050919050565b5f82821b905092915050565b5f600883026200019e7fffffffffffffffffffffffffffffffffffffffffffffffffffffffffffffffff8262000161565b620001aa868362000161565b95508019841693508086168417925050509392505050565b5f819050919050565b5f819050919050565b5f620001f4620001ee620001e884620001c2565b620001cb565b620001c2565b9050919050565b5f819050919050565b6200020f83620001d4565b620002276200021e82620001fb565b8484546200016d565b825550505050565b5f90565b6200023d6200022f565b6200024a81848462000204565b505050565b5b818110156200027157620002655f8262000233565b60018101905062000250565b5050565b601f821115620002c0576200028a8162000140565b620002958462000152565b81016020851015620002a5578190505b620002bd620002b48562000152565b8301826200024f565b50505b505050565b5f82821c905092915050565b5f620002e25f1984600802620002c5565b1980831691505092915050565b5f620002fc8383620002d1565b9150826002028217905092915050565b6200031782620000a8565b67ffffffffffffffff811115620003335762000332620000b2565b5b6200033f82546200010c565b6200034c82828562000275565b5f60209050601f83116001811462000382575f84156200036d578287015190505b620003798582620002ef565b865550620003e8565b601f198416620003928662000140565b5f5b82811015620003bb5784890151825560018201915060208501945060208101905062000394565b86831015620003db5784890151620003d7601f891682620002d1565b8355505b6001600288020188555050505b505050505050565b6129ee80620003fe5f395ff3fe608060405234801561000f575f80fd5b50600436106100e8575f3560e01c806370a082311161008a578063b88d4fde11610064578063b88d4fde14610258578063c87b56dd14610274578063e985e9c5146102a4578063eacabe14146102d4576100e8565b806370a08231146101ee57806395d89b411461021e578063a22cb4651461023c576100e8565b8063095ea7b3116100c6578063095ea7b31461016a57806323b872dd1461018657806342842e0e146101a25780636352211e146101be576100e8565b806301ffc9a7146100ec57806306fdde031461011c578063081812fc1461013a575b5f80fd5b61010660048036038101906101019190611967565b610304565b60405161011391906119ac565b60405180910390f35b610124610364565b6040516101319190611a4f565b60405180910390f35b610154600480360381019061014f9190611aa2565b6103f3565b6040516101619190611b0c565b60405180910390f35b610184600480360381019061017f9190611b4f565b610435565b005b6101a0600480360381019061019b9190611b8d565b61054b565b005b6101bc60048036038101906101b79190611b8d565b6105ab565b005b6101d860048036038101906101d39190611aa2565b6105ca565b6040516101e59190611b0c565b60405180910390f35b61020860048036038101906102039190611bdd565b61064e565b6040516102159190611c17565b60405180910390f35b610226610702565b6040516102339190611a4f565b60405180910390f35b61025660048036038101906102519190611c5a565b610792565b005b610272600480360381019061026d9190611dc4565b6107a8565b005b61028e60048036038101906102899190611aa2565b61080a565b60405161029b9190611a4f565b60405180910390f35b6102be60048036038101906102b99190611e44565b610914565b6040516102cb91906119ac565b60405180910390f35b6102ee60048036038101906102e99190611f20565b6109a2565b6040516102fb9190611c17565b60405180910390f35b5f634906490660e01b7bffffffffffffffffffffffffffffffffffffffffffffffffffffffff1916827bffffffffffffffffffffffffffffffffffffffffffffffffffffffff1916148061035d575061035c826109d8565b5b9050919050565b60605f805461037290611fa7565b80601f016020809104026020016040519081016040528092919081815260200182805461039e90611fa7565b80156103e95780601f106103c0576101008083540402835291602001916103e9565b820191905f5260205f20905b8154815290600101906020018083116103cc57829003601f168201915b5050505050905090565b5f6103fd82610ab9565b60045f8381526020019081526020015f205f9054906101000a900473ffffffffffffffffffffffffffffffffffffffff169050919050565b5f61043f826105ca565b90508073ffffffffffffffffffffffffffffffffffffffff168373ffffffffffffffffffffffffffffffffffffffff16036104af576040517f08c379a00000000000000000000000000000000000000000000000000000000081526004016104a690612047565b60405180910390fd5b8073ffffffffffffffffffffffffffffffffffffffff166104ce610b04565b73ffffffffffffffffffffffffffffffffffffffff1614806104fd57506104fc816104f7610b04565b610914565b5b61053c576040517f08c379a0000000000000000000000000000000000000000000000000000000008152600401610533906120d5565b60405180910390fd5b6105468383610b0b565b505050565b61055c610556610b04565b82610bc1565b61059b576040517f08c379a000000000000000000000000000000000000000000000000000000000815260040161059290612163565b60405180910390fd5b6105a6838383610c55565b505050565b6105c583838360405180602001604052805f8152506107a8565b505050565b5f806105d583610f41565b90505f73ffffffffffffffffffffffffffffffffffffffff168173ffffffffffffffffffffffffffffffffffffffff1603610645576040517f08c379a000000000000000000000000000000000000000000000000000000000815260040161063c906121cb565b60405180910390fd5b80915050919050565b5f8073ffffffffffffffffffffffffffffffffffffffff168273ffffffffffffffffffffffffffffffffffffffff16036106bd576040517f08c379a00000000000000000000000000000000000000000000000000000000081526004016106b490612259565b60405180910390fd5b60035f8373ffffffffffffffffffffffffffffffffffffffff1673ffffffffffffffffffffffffffffffffffffffff1681526020019081526020015f20549050919050565b60606001805461071190611fa7565b80601f016020809104026020016040519081016040528092919081815260200182805461073d90611fa7565b80156107885780601f1061075f57610100808354040283529160200191610788565b820191905f5260205f20905b81548152906001019060200180831161076b57829003601f168201915b5050505050905090565b6107a461079d610b04565b8383610f7a565b5050565b6107b96107b3610b04565b83610bc1565b6107f8576040517f08c379a00000000000000000000000000000000000000000000000000000000081526004016107ef90612163565b60405180910390fd5b610804848484846110e1565b50505050565b606061081582610ab9565b5f60065f8481526020019081526020015f20805461083290611fa7565b80601f016020809104026020016040519081016040528092919081815260200182805461085e90611fa7565b80156108a95780601f10610880576101008083540402835291602001916108a9565b820191905f5260205f20905b81548152906001019060200180831161088c57829003601f168201915b505050505090505f6108b961113d565b90505f8151036108cd57819250505061090f565b5f825111156109015780826040516020016108e99291906122b1565b6040516020818303038152906040529250505061090f565b61090a84611153565b925050505b919050565b5f60055f8473ffffffffffffffffffffffffffffffffffffffff1673ffffffffffffffffffffffffffffffffffffffff1681526020019081526020015f205f8373ffffffffffffffffffffffffffffffffffffffff1673ffffffffffffffffffffffffffffffffffffffff1681526020019081526020015f205f9054906101000a900460ff16905092915050565b5f6109ad60076111b8565b5f6109b860076111cc565b90506109c484826111d8565b6109ce81846113eb565b8091505092915050565b5f7f80ac58cd000000000000000000000000000000000000000000000000000000007bffffffffffffffffffffffffffffffffffffffffffffffffffffffff1916827bffffffffffffffffffffffffffffffffffffffffffffffffffffffff19161480610aa257507f5b5e139f000000000000000000000000000000000000000000000000000000007bffffffffffffffffffffffffffffffffffffffffffffffffffffffff1916827bffffffffffffffffffffffffffffffffffffffffffffffffffffffff1916145b80610ab25750610ab18261148d565b5b9050919050565b610ac2816114f6565b610b01576040517f08c379a0000000000000000000000000000000000000000000000000000000008152600401610af8906121cb565b60405180910390fd5b50565b5f33905090565b8160045f8381526020019081526020015f205f6101000a81548173ffffffffffffffffffffffffffffffffffffffff021916908373ffffffffffffffffffffffffffffffffffffffff160217905550808273ffffffffffffffffffffffffffffffffffffffff16610b7b836105ca565b73ffffffffffffffffffffffffffffffffffffffff167f8c5be1e5ebec7d5bd14f71427d1e84f3dd0314c0f7b2291e5b200ac8c7c3b92560405160405180910390a45050565b5f80610bcc836105ca565b90508073ffffffffffffffffffffffffffffffffffffffff168473ffffffffffffffffffffffffffffffffffffffff161480610c0e5750610c0d8185610914565b5b80610c4c57508373ffffffffffffffffffffffffffffffffffffffff16610c34846103f3565b73ffffffffffffffffffffffffffffffffffffffff16145b91505092915050565b8273ffffffffffffffffffffffffffffffffffffffff16610c75826105ca565b73ffffffffffffffffffffffffffffffffffffffff1614610ccb576040517f08c379a0000000000000000000000000000000000000000000000000000000008152600401610cc290612344565b60405180910390fd5b5f73ffffffffffffffffffffffffffffffffffffffff168273ffffffffffffffffffffffffffffffffffffffff1603610d39576040517f08c379a0000000000000000000000000000000000000000000000000000000008152600401610d30906123d2565b60405180910390fd5b610d468383836001611536565b8273ffffffffffffffffffffffffffffffffffffffff16610d66826105ca565b73ffffffffffffffffffffffffffffffffffffffff1614610dbc576040517f08c379a0000000000000000000000000000000000000000000000000000000008152600401610db390612344565b60405180910390fd5b60045f8281526020019081526020015f205f6101000a81549073ffffffffffffffffffffffffffffffffffffffff0219169055600160035f8573ffffffffffffffffffffffffffffffffffffffff1673ffffffffffffffffffffffffffffffffffffffff1681526020019081526020015f205f8282540392505081905550600160035f8473ffffffffffffffffffffffffffffffffffffffff1673ffffffffffffffffffffffffffffffffffffffff1681526020019081526020015f205f82825401925050819055508160025f8381526020019081526020015f205f6101000a81548173ffffffffffffffffffffffffffffffffffffffff021916908373ffffffffffffffffffffffffffffffffffffffff160217905550808273ffffffffffffffffffffffffffffffffffffffff168473ffffffffffffffffffffffffffffffffffffffff167fddf252ad1be2c89b69c2b068fc378daa952ba7f163c4a11628f55a4df523b3ef60405160405180910390a4610f3c838383600161153c565b505050565b5f60025f8381526020019081526020015f205f9054906101000a900473ffffffffffffffffffffffffffffffffffffffff169050919050565b8173ffffffffffffffffffffffffffffffffffffffff168373ffffffffffffffffffffffffffffffffffffffff1603610fe8576040517f08c379a0000000000000000000000000000000000000000000000000000000008152600401610fdf9061243a565b60405180910390fd5b8060055f8573ffffffffffffffffffffffffffffffffffffffff1673ffffffffffffffffffffffffffffffffffffffff1681526020019081526020015f205f8473ffffffffffffffffffffffffffffffffffffffff1673ffffffffffffffffffffffffffffffffffffffff1681526020019081526020015f205f6101000a81548160ff0219169083151502179055508173ffffffffffffffffffffffffffffffffffffffff168373ffffffffffffffffffffffffffffffffffffffff167f17307eab39ab6107e8899845ad3d59bd9653f200f220920489ca2b5937696c31836040516110d491906119ac565b60405180910390a3505050565b6110ec848484610c55565b6110f884848484611542565b611137576040517f08c379a000000000000000000000000000000000000000000000000000000000815260040161112e906124c8565b60405180910390fd5b50505050565b606060405180602001604052805f815250905090565b606061115e82610ab9565b5f61116761113d565b90505f8151116111855760405180602001604052805f8152506111b0565b8061118f846116c4565b6040516020016111a09291906122b1565b6040516020818303038152906040525b915050919050565b6001815f015f828254019250508190555050565b5f815f01549050919050565b5f73ffffffffffffffffffffffffffffffffffffffff168273ffffffffffffffffffffffffffffffffffffffff1603611246576040517f08c379a000000000000000000000000000000000000000000000000000000000815260040161123d90612530565b60405180910390fd5b61124f816114f6565b1561128f576040517f08c379a000000000000000000000000000000000000000000000000000000000815260040161128690612598565b60405180910390fd5b61129c5f83836001611536565b6112a5816114f6565b156112e5576040517f08c379a00000000000000000000000000000000000000000000000000000000081526004016112dc90612598565b60405180910390fd5b600160035f8473ffffffffffffffffffffffffffffffffffffffff1673ffffffffffffffffffffffffffffffffffffffff1681526020019081526020015f205f82825401925050819055508160025f8381526020019081526020015f205f6101000a81548173ffffffffffffffffffffffffffffffffffffffff021916908373ffffffffffffffffffffffffffffffffffffffff160217905550808273ffffffffffffffffffffffffffffffffffffffff165f73ffffffffffffffffffffffffffffffffffffffff167fddf252ad1be2c89b69c2b068fc378daa952ba7f163c4a11628f55a4df523b3ef60405160405180910390a46113e75f8383600161153c565b5050565b6113f4826114f6565b611433576040517f08c379a000000000000000000000000000000000000000000000000000000000815260040161142a90612626565b60405180910390fd5b8060065f8481526020019081526020015f20908161145191906127e1565b507ff8e1a15aba9398e019f0b49df1a4fde98ee17ae345cb5f6b5e2c27f5033e8ce7826040516114819190611c17565b60405180910390a15050565b5f7f01ffc9a7000000000000000000000000000000000000000000000000000000007bffffffffffffffffffffffffffffffffffffffffffffffffffffffff1916827bffffffffffffffffffffffffffffffffffffffffffffffffffffffff1916149050919050565b5f8073ffffffffffffffffffffffffffffffffffffffff1661151783610f41565b73ffffffffffffffffffffffffffffffffffffffff1614159050919050565b50505050565b50505050565b5f6115628473ffffffffffffffffffffffffffffffffffffffff1661178e565b156116b7578373ffffffffffffffffffffffffffffffffffffffff1663150b7a0261158b610b04565b8786866040518563ffffffff1660e01b81526004016115ad9493929190612902565b6020604051808303815f875af19250505080156115e857506040513d601f19601f820116820180604052508101906115e59190612960565b60015b611667573d805f8114611616576040519150601f19603f3d011682016040523d82523d5f602084013e61161b565b606091505b505f81510361165f576040517f08c379a0000000000000000000000000000000000000000000000000000000008152600401611656906124c8565b60405180910390fd5b805181602001fd5b63150b7a0260e01b7bffffffffffffffffffffffffffffffffffffffffffffffffffffffff1916817bffffffffffffffffffffffffffffffffffffffffffffffffffffffff1916149150506116bc565b600190505b949350505050565b60605f60016116d2846117b0565b0190505f8167ffffffffffffffff8111156116f0576116ef611ca0565b5b6040519080825280601f01601f1916602001820160405280156117225781602001600182028036833780820191505090505b5090505f82602001820190505b600115611783578080600190039150507f3031323334353637383961626364656600000000000000000000000000000000600a86061a8153600a85816117785761177761298b565b5b0494505f850361172f575b819350505050919050565b5f808273ffffffffffffffffffffffffffffffffffffffff163b119050919050565b5f805f90507a184f03e93ff9f4daa797ed6e38ed64bf6a1f010000000000000000831061180c577a184f03e93ff9f4daa797ed6e38ed64bf6a1f01000000000000000083816118025761180161298b565b5b0492506040810190505b6d04ee2d6d415b85acef81000000008310611849576d04ee2d6d415b85acef8100000000838161183f5761183e61298b565b5b0492506020810190505b662386f26fc10000831061187857662386f26fc10000838161186e5761186d61298b565b5b0492506010810190505b6305f5e10083106118a1576305f5e10083816118975761189661298b565b5b0492506008810190505b61271083106118c65761271083816118bc576118bb61298b565b5b0492506004810190505b606483106118e957606483816118df576118de61298b565b5b0492506002810190505b600a83106118f8576001810190505b80915050919050565b5f604051905090565b5f80fd5b5f80fd5b5f7fffffffff0000000000000000000000000000000000000000000000000000000082169050919050565b61194681611912565b8114611950575f80fd5b50565b5f813590506119618161193d565b92915050565b5f6020828403121561197c5761197b61190a565b5b5f61198984828501611953565b91505092915050565b5f8115159050919050565b6119a681611992565b82525050565b5f6020820190506119bf5f83018461199d565b92915050565b5f81519050919050565b5f82825260208201905092915050565b5f5b838110156119fc5780820151818401526020810190506119e1565b5f8484015250505050565b5f601f19601f8301169050919050565b5f611a21826119c5565b611a2b81856119cf565b9350611a3b8185602086016119df565b611a4481611a07565b840191505092915050565b5f6020820190508181035f830152611a678184611a17565b905092915050565b5f819050919050565b611a8181611a6f565b8114611a8b575f80fd5b50565b5f81359050611a9c81611a78565b92915050565b5f60208284031215611ab757611ab661190a565b5b5f611ac484828501611a8e565b91505092915050565b5f73ffffffffffffffffffffffffffffffffffffffff82169050919050565b5f611af682611acd565b9050919050565b611b0681611aec565b82525050565b5f602082019050611b1f5f830184611afd565b92915050565b611b2e81611aec565b8114611b38575f80fd5b50565b5f81359050611b4981611b25565b92915050565b5f8060408385031215611b6557611b6461190a565b5b5f611b7285828601611b3b565b9250506020611b8385828601611a8e565b9150509250929050565b5f805f60608486031215611ba457611ba361190a565b5b5f611bb186828701611b3b565b9350506020611bc286828701611b3b565b9250506040611bd386828701611a8e565b9150509250925092565b5f60208284031215611bf257611bf161190a565b5b5f611bff84828501611b3b565b91505092915050565b611c1181611a6f565b82525050565b5f602082019050611c2a5f830184611c08565b92915050565b611c3981611992565b8114611c43575f80fd5b50565b5f81359050611c5481611c30565b92915050565b5f8060408385031215611c7057611c6f61190a565b5b5f611c7d85828601611b3b565b9250506020611c8e85828601611c46565b9150509250929050565b5f80fd5b5f80fd5b7f4e487b71000000000000000000000000000000000000000000000000000000005f52604160045260245ffd5b611cd682611a07565b810181811067ffffffffffffffff82111715611cf557611cf4611ca0565b5b80604052505050565b5f611d07611901565b9050611d138282611ccd565b919050565b5f67ffffffffffffffff821115611d3257611d31611ca0565b5b611d3b82611a07565b9050602081019050919050565b828183375f83830152505050565b5f611d68611d6384611d18565b611cfe565b905082815260208101848484011115611d8457611d83611c9c565b5b611d8f848285611d48565b509392505050565b5f82601f830112611dab57611daa611c98565b5b8135611dbb848260208601611d56565b91505092915050565b5f805f8060808587031215611ddc57611ddb61190a565b5b5f611de987828801611b3b565b9450506020611dfa87828801611b3b565b9350506040611e0b87828801611a8e565b925050606085013567ffffffffffffffff811115611e2c57611e2b61190e565b5b611e3887828801611d97565b91505092959194509250565b5f8060408385031215611e5a57611e5961190a565b5b5f611e6785828601611b3b565b9250506020611e7885828601611b3b565b9150509250929050565b5f67ffffffffffffffff821115611e9c57611e9b611ca0565b5b611ea582611a07565b9050602081019050919050565b5f611ec4611ebf84611e82565b611cfe565b905082815260208101848484011115611ee057611edf611c9c565b5b611eeb848285611d48565b509392505050565b5f82601f830112611f0757611f06611c98565b5b8135611f17848260208601611eb2565b91505092915050565b5f8060408385031215611f3657611f3561190a565b5b5f611f4385828601611b3b565b925050602083013567ffffffffffffffff811115611f6457611f6361190e565b5b611f7085828601611ef3565b9150509250929050565b7f4e487b71000000000000000000000000000000000000000000000000000000005f52602260045260245ffd5b5f6002820490506001821680611fbe57607f821691505b602082108103611fd157611fd0611f7a565b5b50919050565b7f4552433732313a20617070726f76616c20746f2063757272656e74206f776e655f8201527f7200000000000000000000000000000000000000000000000000000000000000602082015250565b5f6120316021836119cf565b915061203c82611fd7565b604082019050919050565b5f6020820190508181035f83015261205e81612025565b9050919050565b7f4552433732313a20617070726f76652063616c6c6572206973206e6f7420746f5f8201527f6b656e206f776e6572206f7220617070726f76656420666f7220616c6c000000602082015250565b5f6120bf603d836119cf565b91506120ca82612065565b604082019050919050565b5f6020820190508181035f8301526120ec816120b3565b9050919050565b7f4552433732313a2063616c6c6572206973206e6f7420746f6b656e206f776e655f8201527f72206f7220617070726f76656400000000000000000000000000000000000000602082015250565b5f61214d602d836119cf565b9150612158826120f3565b604082019050919050565b5f6020820190508181035f83015261217a81612141565b9050919050565b7f4552433732313a20696e76616c696420746f6b656e20494400000000000000005f82015250565b5f6121b56018836119cf565b91506121c082612181565b602082019050919050565b5f6020820190508181035f8301526121e2816121a9565b9050919050565b7f4552433732313a2061646472657373207a65726f206973206e6f7420612076615f8201527f6c6964206f776e65720000000000000000000000000000000000000000000000602082015250565b5f6122436029836119cf565b915061224e826121e9565b604082019050919050565b5f6020820190508181035f83015261227081612237565b9050919050565b5f81905092915050565b5f61228b826119c5565b6122958185612277565b93506122a58185602086016119df565b80840191505092915050565b5f6122bc8285612281565b91506122c88284612281565b91508190509392505050565b7f4552433732313a207472616e736665722066726f6d20696e636f7272656374205f8201527f6f776e6572000000000000000000000000000000000000000000000000000000602082015250565b5f61232e6025836119cf565b9150612339826122d4565b604082019050919050565b5f6020820190508181035f83015261235b81612322565b9050919050565b7f4552433732313a207472616e7366657220746f20746865207a65726f206164645f8201527f7265737300000000000000000000000000000000000000000000000000000000602082015250565b5f6123bc6024836119cf565b91506123c782612362565b604082019050919050565b5f6020820190508181035f8301526123e9816123b0565b9050919050565b7f4552433732313a20617070726f766520746f2063616c6c6572000000000000005f82015250565b5f6124246019836119cf565b915061242f826123f0565b602082019050919050565b5f6020820190508181035f83015261245181612418565b9050919050565b7f4552433732313a207472616e7366657220746f206e6f6e2045524337323152655f8201527f63656976657220696d706c656d656e7465720000000000000000000000000000602082015250565b5f6124b26032836119cf565b91506124bd82612458565b604082019050919050565b5f6020820190508181035f8301526124df816124a6565b9050919050565b7f4552433732313a206d696e7420746f20746865207a65726f20616464726573735f82015250565b5f61251a6020836119cf565b9150612525826124e6565b602082019050919050565b5f6020820190508181035f8301526125478161250e565b9050919050565b7f4552433732313a20746f6b656e20616c7265616479206d696e746564000000005f82015250565b5f612582601c836119cf565b915061258d8261254e565b602082019050919050565b5f6020820190508181035f8301526125af81612576565b9050919050565b7f45524337323155524953746f726167653a2055524920736574206f66206e6f6e5f8201527f6578697374656e7420746f6b656e000000000000000000000000000000000000602082015250565b5f612610602e836119cf565b915061261b826125b6565b604082019050919050565b5f6020820190508181035f83015261263d81612604565b9050919050565b5f819050815f5260205f209050919050565b5f6020601f8301049050919050565b5f82821b905092915050565b5f600883026126a07fffffffffffffffffffffffffffffffffffffffffffffffffffffffffffffffff82612665565b6126aa8683612665565b95508019841693508086168417925050509392505050565b5f819050919050565b5f6126e56126e06126db84611a6f565b6126c2565b611a6f565b9050919050565b5f819050919050565b6126fe836126cb565b61271261270a826126ec565b848454612671565b825550505050565b5f90565b61272661271a565b6127318184846126f5565b505050565b5b81811015612754576127495f8261271e565b600181019050612737565b5050565b601f8211156127995761276a81612644565b61277384612656565b81016020851015612782578190505b61279661278e85612656565b830182612736565b50505b505050565b5f82821c905092915050565b5f6127b95f198460080261279e565b1980831691505092915050565b5f6127d183836127aa565b9150826002028217905092915050565b6127ea826119c5565b67ffffffffffffffff81111561280357612802611ca0565b5b61280d8254611fa7565b612818828285612758565b5f60209050601f831160018114612849575f8415612837578287015190505b61284185826127c6565b8655506128a8565b601f19841661285786612644565b5f5b8281101561287e57848901518255600182019150602085019450602081019050612859565b8683101561289b5784890151612897601f8916826127aa565b8355505b6001600288020188555050505b505050505050565b5f81519050919050565b5f82825260208201905092915050565b5f6128d4826128b0565b6128de81856128ba565b93506128ee8185602086016119df565b6128f781611a07565b840191505092915050565b5f6080820190506129155f830187611afd565b6129226020830186611afd565b61292f6040830185611c08565b818103606083015261294181846128ca565b905095945050505050565b5f8151905061295a8161193d565b92915050565b5f602082840312156129755761297461190a565b5b5f6129828482850161294c565b91505092915050565b7f4e487b71000000000000000000000000000000000000000000000000000000005f52601260045260245ffdfea26469706673582212206812c3b268f9be53bcb0398feddbf13b4785fd643521460065896d7da3f1f36264736f6c63430008150033",
  "immutableReferences": {},
  "source": "// SPDX-License-Identifier: MIT\r\npragma solidity ^0.8.0;\r\n\r\nimport '@openzeppelin/contracts/token/ERC721/extensions/ERC721URIStorage.sol'; \r\nimport '@openzeppelin/contracts/utils/Counters.sol';\r\n\r\ncontract TestNFT1 is ERC721URIStorage {\r\n    using Counters for Counters.Counter;\r\n    Counters.Counter private _tokenIds;\r\n\r\n    constructor() ERC721(\"TestNFT1\", \"TestNFT1\") {}\r\n\r\n    function mintNFT(address user, string memory _newBaseURI) external returns (uint256) {\r\n        _tokenIds.increment();\r\n\r\n        uint256 tokenId = _tokenIds.current();\r\n        // _mint(user, tokenId); //,  \r\n        _mint(user, tokenId); //,  \r\n        _setTokenURI(tokenId, _newBaseURI);\r\n\r\n        return tokenId;\r\n    }\r\n}\r\n",
  "sourcePath": "C:\\Users\\SSAFY\\Desktop\\ssafy\\\\S09P22A209\\blockchain\\smart-contract\\contracts\\TestNFT1.sol",
  "compiler": {
    "name": "solc",
    "version": "0.8.21+commit.d9974bed.Emscripten.clang"
  },
  "schemaVersion": "3.4.16",
  "updatedAt": "2023-09-15T04:19:34.570Z",
  "devdoc": {
    "events": {
      "Approval(address,address,uint256)": {
        "details": "Emitted when `owner` enables `approved` to manage the `tokenId` token."
      },
      "ApprovalForAll(address,address,bool)": {
        "details": "Emitted when `owner` enables or disables (`approved`) `operator` to manage all of its assets."
      },
      "BatchMetadataUpdate(uint256,uint256)": {
        "details": "This event emits when the metadata of a range of tokens is changed. So that the third-party platforms such as NFT market could timely update the images and related attributes of the NFTs."
      },
      "MetadataUpdate(uint256)": {
        "details": "This event emits when the metadata of a token is changed. So that the third-party platforms such as NFT market could timely update the images and related attributes of the NFT."
      },
      "Transfer(address,address,uint256)": {
        "details": "Emitted when `tokenId` token is transferred from `from` to `to`."
      }
    },
    "kind": "dev",
    "methods": {
      "approve(address,uint256)": {
        "details": "See {IERC721-approve}."
      },
      "balanceOf(address)": {
        "details": "See {IERC721-balanceOf}."
      },
      "getApproved(uint256)": {
        "details": "See {IERC721-getApproved}."
      },
      "isApprovedForAll(address,address)": {
        "details": "See {IERC721-isApprovedForAll}."
      },
      "name()": {
        "details": "See {IERC721Metadata-name}."
      },
      "ownerOf(uint256)": {
        "details": "See {IERC721-ownerOf}."
      },
      "safeTransferFrom(address,address,uint256)": {
        "details": "See {IERC721-safeTransferFrom}."
      },
      "safeTransferFrom(address,address,uint256,bytes)": {
        "details": "See {IERC721-safeTransferFrom}."
      },
      "setApprovalForAll(address,bool)": {
        "details": "See {IERC721-setApprovalForAll}."
      },
      "supportsInterface(bytes4)": {
        "details": "See {IERC165-supportsInterface}"
      },
      "symbol()": {
        "details": "See {IERC721Metadata-symbol}."
      },
      "tokenURI(uint256)": {
        "details": "See {IERC721Metadata-tokenURI}."
      },
      "transferFrom(address,address,uint256)": {
        "details": "See {IERC721-transferFrom}."
      }
    },
    "version": 1
  },
  "userdoc": {
    "kind": "user",
    "methods": {},
    "version": 1
  }
}